:020000040800F2
:100000000000032051310008E5180008F31800082B
:10001000F9180008FF180008051900080000000082
:100020000000000000000000000000000B190008A4
:1000300019190008000000002719000835190008E8
:10004000A5310008A5310008A531000841190008B4
:10005000A5310008A5310008A5310008A531000828
:10006000A5310008A5310008A5310008A531000818
:10007000A5310008A5310008A5310008A531000808
:10008000A5310008A5310008A5310008A5310008F8
:10009000A5310008A5310008A5310008A5310008E8
:1000A000A5310008A5310008A5310008A5310008D8
:1000B000A5310008A5310008A5310008A5310008C8
:1000C000A5310008A5310008A5310008A5310008B8
:1000D000A5310008A5310008A5310008A5310008A8
:1000E000A5310008A5310008A5310008A531000898
:1000F0004D1900085919000865190008A5310008B4
:10010000A5310008A5310008A5310008A531000877
:10011000A5310008A5310008A5310008A531000867
:10012000A5310008A5310008A5310008A531000857
:0C013000A5310008A5310008A531000829
:1001400010B5054C237833B9044B13B10448AFF311
:1001500000800123237010BD7C00002000000000FF
:100160002073000808B5034B1BB103490348AFF3E4
:10017000008008BD000000008000002020730008FF
:1001800001F0FF01102A2BDB10F0070F08D010F848
:10019000013B013A8B422DD010F0070F42B3F6D14C
:1001A000F0B441EA012141EA014122F007047FF065
:1001B00000070023F0E80256083C85EA010586EABC
:1001C000010685FA47F5A3FA87F586FA47F6A5FAF8
:1001D00087F68EB9EED1F0BC01F0FF0102F0070204
:1001E00032B110F8013B013A83EA010313B1F8D1AF
:1001F0000020704701387047002D06BF3546033890
:10020000073815F0010F07D1013015F4807F02BFC8
:10021000013015F4C03F0130F0BC0138704700BF19
:1002200080B483B000AF7860064BD3F890200549C6
:100230007B681343C1F8903000BF0C37BD465DF8B2
:10024000047B70470008005880B485B000AF786028
:100250004FF0B043DA6C4FF0B0417B681343CB648E
:100260004FF0B043DA6C7B681340FB60FB6800BF63
:100270001437BD465DF8047B704780B485B000AF8D
:1002800078604FF0B043D3F84C214FF0B0417B6819
:100290001343C1F84C314FF0B043D3F84C217B6885
:1002A0001340FB60FB6800BF1437BD465DF8047B5C
:1002B000704780B500AF03F073F803F077F84FF4A0
:1002C0008030FFF7ADFF00F021F800F0C3F800BF69
:1002D00080BD0000B0B588B000AF0B4B3C1D1D4683
:1002E0000FCD0FC495E8070003C422800234130C1D
:1002F000237006F079F83B1D184605F0E0FD00BFBD
:100300002037BD46B0BD00BF3873000880B588B047
:1003100000AF3B1D00221A605A609A60DA601A61D1
:100320000023BB8300237B8300233B830023FB77D5
:1003300038E0FB7F444ADB0013449B79002B2BD031
:10034000FB7F414A52F83330404A93421BD03F4A28
:10035000934223D8B3F1904F03D03D4A934209D042
:100360001CE0FB7F384ADB0013449A88BB8B1343A5
:10037000BB8314E0FB7F344ADB0013449A887B8BF9
:1003800013437B830BE0FB7F2F4ADB0013449A88E7
:100390003B8B13433B8302E000BF00E000BFFB7FC9
:1003A0000133FB77FB7F252BC3D90023FB6001239F
:1003B000BB6003233B61BB8B002B14D0BB8B7B60EA
:1003C0000120FFF741FF0120FFF757FF3B1D1946B2
:1003D0004FF0904003F08AF9BB8B002219464FF092
:1003E000904003F0F3FA7B8B002B12D07B8B7B6069
:1003F0000220FFF729FF0220FFF73FFF3B1D1946B0
:10040000134803F073F97B8B00221946104803F060
:10041000DDFA3B8B002B13D03B8B7B600420FFF776
:1004200013FF0420FFF729FF3B1D1946074803F07F
:100430005DF93B8B00221946044803F0C7FA00BF60
:1004400000BF2037BD4680BD247400080008004866
:100450000004004880B400AF00BFBD465DF8047BD7
:100460007047000080B483B000AF7860074BD3F8CA
:10047000803023F0070205497B681343C1F88030C0
:1004800000BF0C37BD465DF8047B70470004005880
:1004900080B483B000AF7860064BD3F89020054954
:1004A0007B681343C1F8903000BF0C37BD465DF840
:1004B000047B70470008005880B483B000AF7860B8
:1004C0004FF0B0430A4AC3F89C204FF0B043D3F832
:1004D0009C3023F47C527B681B024FF0B0411343E5
:1004E000C1F89C3000BF0C37BD465DF8047B7047F7
:1004F000FECAFECA80B483B000AF78604FF0B0434C
:100500009B6823F400424FF0B0417B6813438B603B
:1005100000BF0C37BD465DF8047B704780B400AF68
:100520004FF0B043D3F890304FF0B04243F48033F3
:10053000C2F8903000BFBD465DF8047B704780B4C0
:1005400000AF4FF0B043D3F890304FF0B04223F4F7
:100550008033C2F8903000BFBD465DF8047B704721
:1005600080B400AF4FF0B043D3F8943003F0806311
:10057000B3F1806F01D1012300E000231846BD468E
:100580005DF8047B704780B400AF4FF0B043D3F800
:10059000943003F08053B3F1805F01D1012300E078
:1005A00000231846BD465DF8047B704780B485B0D3
:1005B00000AF78604FF0B0431A6D4FF0B0417B68E8
:1005C00013430B654FF0B0431A6D7B681340FB601B
:1005D000FB6800BF1437BD465DF8047B704780B4EC
:1005E00083B000AF786039607B685A683B681B0451
:1005F0001A437B685A6000BF0C37BD465DF8047B28
:10060000704780B483B000AF786039607B685A6807
:100610003B681A437B685A6000BF0C37BD465DF8E3
:10062000047B704780B483B000AF786039607B682A
:100630005A693B681B041A437B685A6100BF0C3738
:10064000BD465DF8047B704780B483B000AF78602E
:1006500039607B685A693B681A437B685A6100BFFE
:100660000C37BD465DF8047B704780B483B000AFA3
:10067000786039607B683A689A6000BF0C37BD4685
:100680005DF8047B704780B483B000AF7860396058
:100690007B683A689A6100BF0C37BD465DF8047B01
:1006A000704780B483B000AF78607B68FF225A62E5
:1006B00000BF0C37BD465DF8047B704780B483B043
:1006C00000AF78607B68CA225A627B6853225A6204
:1006D00000BF0C37BD465DF8047B704780B483B023
:1006E00000AF786039607B689B6823F007023B6845
:1006F0001A437B689A6000BF0C37BD465DF8047BE7
:100700007047000080B500AF044B4FF400421A61FF
:1007100000F02EF800F06EF800BF80BD00400058D9
:1007200080B500AF00F07AF800F092F80849002098
:1007300000F044FDFFF7BDFD0121012005F022FF7F
:1007400000F0FEF800F003F900F090F800BF80BD63
:100750007C01002080B400AF00BFBD465DF8047B83
:10076000704780B500AF5020FFF792FE00BF80BDFC
:1007700080B500AF00F004F800F01AF800BF80BDAB
:1007800080B500AFFFF7ECFE0346002B0DD0FFF75E
:10079000FAFE0346002B08D103F0DAF903F0D8F98A
:1007A000FFF7BCFEFFF7CBFE00BF00BF80BD00001F
:1007B00080B500AF4FF48010FFF7F8FE3F210C48E2
:1007C000FFF753FF3F210A48FFF75DFF3F2108482D
:1007D000FFF705FF3F210648FFF724FF3F210448AC
:1007E000FFF70FFF3F210248FFF72EFF00BF80BD3C
:1007F000000C005880B582B000AF002005F020FB4F
:1008000078607B68002B05D07B689B791846FFF7E2
:1008100053FE00BF00BF0837BD4680BD80B500AFA6
:10082000FFF798FFFFF79DFF00F002F800BF80BDC3
:1008300080B500AF0548FFF741FF00210348FFF7EF
:100840004DFF0248FFF72DFF00BF80BD002800408C
:1008500080B500AF4FF40040FFF74CFE05F050FEAE
:100860000420FFF7FFFD00BF80BD000080B58AB007
:1008700000AF05F0EFFB134805F04DFB124A0021D5
:100880004FF4007005F0AAFF104BFB60104B7B602B
:10089000104BBB603B1D184605F0B4FC0E4B3B6192
:1008A0000E4B7B610E4BBB6140F23C53FB6107F189
:1008B0001003184605F024FD05F0C5FB00BF2837DE
:1008C000BD4680BD980000200D09000828060320C1
:1008D000D1270008E508000840080320340703205A
:1008E000EC00032080B582B000AF786079680648DC
:1008F00005F043FB00214FF4007005F091FF00BFAD
:100900000837BD4680BD00BF9800002080B582B08A
:1009100000AFFFF7DFFC0021012005F033FE3B1D97
:100920001946064805F070FB7B68184605F024FD63
:1009300001F072FE00BF0837BD4680BD9800002060
:1009400080B400AF00BFBD465DF8047B704780B443
:1009500000AF00BFBD465DF8047B704780B500AFB7
:100960004FF0FF3005F03EFE00BF80BD80B400AF09
:1009700000BFBD465DF8047B704780B582B000AF14
:10098000786039604FF0FF3005F02CFE00BF08376B
:10099000BD4680BD80B483B000AF7860064BD3F80D
:1009A000802005497B681343C1F8803000BF0C37B5
:1009B000BD465DF8047B70470008005880B483B0E2
:1009C00000AF7860054B1A6804497B6813430B60DD
:1009D00000BF0C37BD465DF8047B70470008005827
:1009E00080B483B000AF0D4B9B6A9BB27B600B4B16
:1009F0009B6A9BB23B6005E03B687B60074B9B6A50
:100A00009BB23B607A683B689A42F5D13B681846D6
:100A10000C37BD465DF8047B704700BF00280040DE
:100A200080B485B000AF03460A46FB711346BB7124
:100A3000BA791D4913465B001344DB000B441533A0
:100A40001B78FB73FB7B062B09D0FA7B16491346F8
:100A50005B001344DB000B441433FA791A70FA7903
:100A6000114913465B001344DB000B441533FA7B3A
:100A70001A70FA790C4913465B001344DB000B44EF
:100A80001433BA791A70BA79074913465B001344D4
:100A9000DB000B441533FA791A7000BF1437BD46DA
:100AA0005DF8047B704700BFA000002080B485B0D3
:100AB00000AF03460A46FB711346BB71294B1B78F6
:100AC000DBB2BA799A4232D0BA79274913465B0031
:100AD0001344DB000B4414331B78FB73FA7B22496D
:100AE00013465B001344DB000B441533FA791A708C
:100AF000FA791D4913465B001344DB000B441533A0
:100B0000BA791A70FA79184913465B001344DB006E
:100B10000B441433FA7B1A70BA79134913465B00FD
:100B20001344DB000B441433FA791A7014E0FA7999
:100B30000D4913465B001344DB000B441533BA79AF
:100B40001A70BA79084913465B001344DB000B4462
:100B50001433FA791A7000BF1437BD465DF8047B70
:100B6000704700BF30010020A000002080B584B095
:100B700000AF0346FB714E4B1B78DBB2062B18D13E
:100B80004B4B1B78DAB24B4B1A70494AFB79137006
:100B9000FA79494913465B001344DB000B441533D3
:100BA00006221A70454B4FF0FF321A600023FB817A
:100BB00078E000F009F90346FB81FA793E491346D3
:100BC0005B001344DB000B4408331968FB89FA7996
:100BD0001944394813465B001344DB0003440833CF
:100BE0001960FA79344913465B001344DB000B4467
:100BF00008331B68BB602E4B1B78DBB219462E4AAC
:100C00000B465B000B44DB00134408331B68BA68D7
:100C10009A4237D3264B1B787B737A7B264913463F
:100C20005B001344DB000B4415331B783B7313E06C
:100C30007A7B214913465B001344DB000B441533D8
:100C40001B787B737A7B1C4913465B001344DB00E3
:100C50000B4415331B783B733B7B062B0BD03A7B45
:100C6000154913465B001344DB000B4408331B6833
:100C7000BA689A42DCD27A7BFB7911461846FFF7B4
:100C8000CFFE0FE00A4B1B78DAB2FB79114618460B
:100C9000FFF70CFF064B1B78DAB2064B1A70044ABA
:100CA000FB791370FB8918461037BD4680BD00BF25
:100CB0003001002031010020A0000020340100207C
:100CC00080B485B000AF03460A46FB711346BB7182
:100CD000394B1B78DBB2FA799A4211D1364B1B782B
:100CE000DAB2364B1A70FA79354913465B00134471
:100CF000DB000B4415331B78DAB22F4B1A703EE041
:100D0000FA792F4913465B001344DB000B4414337C
:100D10001B78FB73FA792A4913465B001344DB0006
:100D20000B4415331B78BB73F979FA7B24480B46C7
:100D30005B000B44DB00034415331B78D8B2204919
:100D400013465B001344DB000B44153302461A7054
:100D5000BB7B062B13D0F979BA7B19480B465B0095
:100D60000B44DB00034414331B78D8B214491346F8
:100D70005B001344DB000B44143302461A70FA790B
:100D80000F4913465B001344DB000B440C33012274
:100D90001A70094B1B78DBB2062B07D1BB79002BED
:100DA00004D1084B4FF0FF321A6000BF00BF143768
:100DB000BD465DF8047B7047300100203101002002
:100DC000A00000203401002080B582B000AF1A4B93
:100DD0001B68B3F1FF3F26D0FFF702FE7860164B89
:100DE0001B687A689A4205D8134B1A687B68D31A35
:100DF0007B600AE0114B1B881A467B68D31A3B6064
:100E00000D4B1B683A6813447B600D4B1B781A46E8
:100E10007B6802FB03F37B600A4B1B781A467B68F6
:100E2000D3407B6001E000237B607B689BB2184667
:100E30000837BD4680BD00BF340100203C010020C2
:100E40003A0100203901002080B582B000AF03468E
:100E5000FB80FB88002B08D1FFF7C2FD0346214A27
:100E60001360032002F025FC39E0FB88012B03D836
:100E70001D4B1B78012B02D0FB88013BFB8000BF80
:100E80001A4B1B68DB6803F00403002BF8D0174BE8
:100E90001B68DB68DAB2154B1B6862F49062DA609B
:100EA000134B4FF40022DA60032002F010FC114BC8
:100EB0005B691B0C1B04FA880E4913434B61FFF757
:100EC0008FFD0346074A1360084B1B689A68074B5F
:100ED0001B6842F480629A60AFF3008000BF08375D
:100EE000BD4680BD34010020390100207C01002076
:100EF000000800580028004080B584B000AF454B82
:100F00009B6803F48063B3F5806F07D100BF424B49
:100F10001B68DB6803F00403002BF8D13E4B1B6811
:100F20009A683D4B1B6822F480629A603B4B1B78A9
:100F3000FB73FA7B3A4913465B001344DB000B4416
:100F400008331B68BB60FFF73FFF0346FB80FB884D
:100F5000BA689A4205D20023BB81324B01221A7033
:100F60004DE0FB88304A128892B213441A46BB689F
:100F7000934206D92C4B1B88BB812A4B00221A7046
:100F80003DE0BB689AB2FB88D31ABB81254B012296
:100F90001A7034E0FA7B224913465B001344DB00ED
:100FA0000B4408331A68FB889A420AD2FA7B1C4920
:100FB00013465B001344DB000B44083300221A6025
:100FC00013E0FA7B164913465B001344DB000B4425
:100FD00008331968FB88FA7BC91A114813465B006D
:100FE0001344DB00034408331960FA7B0C491346B1
:100FF0005B001344DB000B4415331B78FB73FB7B56
:10100000062BC7D1BB891846FFF71EFF00BF10375C
:10101000BD4680BD002800407C010020300100203A
:10102000A0000020380100203E01002080B58AB0D9
:1010300000AFEFF310837B617B697B6272B600BF08
:10104000594B1B68CA225A62574B1B6853225A627B
:10105000554B1B689A68544B1B6822F480629A6057
:10106000524B1B7887F8233097F8232050491346BA
:101070005B001344DB000B440C331B78DBB2022B08
:101080006ED197F823204A4913465B001344DB00D6
:101090000B441B68FB6197F82320454913465B000E
:1010A0001344DB000B4410331B68BB61414B1B78BE
:1010B000DBB2002B4CD097F823203D4913465B0050
:1010C0001344DB000B440D331B78DBB2012B24D11E
:1010D00097F8233001211846FFF7F2FD7B6A3B6148
:1010E0003B6983F3108800BF97F8232030491346EB
:1010F0005B001344DB000B4404331A6897F8233079
:101100001146184600F0B8F9274B1B68CA225A62EC
:10111000254B1B6853225A6212E07B6AFB60FB6816
:1011200083F3108800BF97F82330184600F020F9A9
:101130001D4B1B68CA225A621B4B1B6853225A6202
:1011400097F82330FA691946B86900F01BFA22E0D3
:10115000FFF7D2FE7B6ABB60BB6883F310881AE09E
:1011600000BF114B1B68DB6803F00403002BF8D0B1
:101170000D4B1B68DB68DAB20B4B1B6862F49062A4
:10118000DA600D4B4FF40022DA607B6A7B607B688B
:1011900083F3108800BF044B1B68FF225A6200BF14
:1011A0002837BD4680BD00BF7C01002030010020F3
:1011B000A0000020380100200008005880B588B049
:1011C00000AF03463960FB715E4B1B68CA225A624E
:1011D0005C4B1B6853225A625B4B9B685A4A43F034
:1011E00020039360584B9B68DBB203F00703DBB22C
:1011F000C3F10403DAB2554B1A70534B1B6903F465
:10120000FE034FF4FE023A613A6992FAA2F2FA60E2
:10121000FA687A617A69002A01D1202203E07A69AA
:10122000B2FA82F2D2B2D340DBB20133DAB2484B27
:101230001A70454B1B699BB2C3F30E039BB201337B
:101240009AB2444B1A80434B1B88013B404A1278A8
:1012500002FB03F3A3F5A0733C4A1278D340BB61B1
:10126000BB694FF6FE72934204D93B4B4FF6FF72B7
:101270001A8003E0BB699AB2374B1A804FF4002002
:10128000FFF79CFB4FF40020FFF784FBFB79002B5A
:101290003DD1324B01221A70314B4FF0FF321A60B0
:1012A0000023FB770CE0FA7F2E4913465B001344C2
:1012B000DB000B440C3300221A70FB7F0133FB77F9
:1012C000FB7F052BEFD9284B06221A701D4B1B689C
:1012D0009A681C4B1B6822F480629A60194B1B6849
:1012E000DB68DAB2174B1B6862F49062DA601F4B5E
:1012F0004FF40022DA60032002F0E9F9114B1B6879
:101300009A68104B1B6842F480429A6009E00D4BCA
:101310001B68DB6803F48063002B02D0032002F01B
:10132000C8F9084B1B68FF225A62002203210320E0
:1013300002F07DF9032002F094F900BF2037BD468A
:1013400080BD00BF7C010020002800403901002042
:101350003A0100203C0100203E010020380100201D
:1013600034010020A00000203001002000080058B7
:1013700080B586B000AF0346FB71EFF31083FB60CE
:10138000FB687B6172B600BF032002F078F9344B32
:101390001B68CA225A62324B1B6853225A62FA797E
:1013A000304913465B001344DB000B440C331B78BD
:1013B000DBB2022B42D1FB7900211846FFF780FCFB
:1013C000294B1B78FB74FB7C062B2FD1274B9B688A
:1013D00003F48063B3F5806F07D100BF204B1B6817
:1013E000DB6803F00403002BF8D11D4B1B689A68DF
:1013F0001B4B1B6822F480629A6000BF184B1B686D
:10140000DB6803F00403002BF8D0154B1B68DB6886
:10141000DAB2134B1B6862F49062DA60144B4FF43B
:101420000022DA60032002F052F907E0114B1B782A
:10143000DBB2FA7C9A4201D0FFF75EFD084B1B68D5
:10144000FF225A62032002F00CF97B69BB60BB6883
:1014500083F3108800BF00BF1837BD4680BD00BFB2
:101460007C010020A0000020300100200028004066
:10147000000800583101002080B586B000AF034657
:101480003960FB71FA793B4913465B001344DB007A
:101490000B440C331B78DBB2022B03D1FB791846CB
:1014A000FFF766FFEFF31083FB60FB687B6172B6AA
:1014B00000BF032002F0E3F82F4B1B68CA225A62D8
:1014C0002D4B1B6853225A62FA792A4913465B0056
:1014D0001344DB000B440C3302221A70FA792549BD
:1014E00013465B001344DB000B4408333A681A6070
:1014F000FA79204913465B001344DB000B440433A4
:101500003A681A60FB791846FFF730FB03467B8286
:101510001A4B1B787B741A4B1B78DBB27A7C9A428D
:1015200002D0FFF7E9FC13E0FA79124913465B0099
:101530001344DB000B44083319687B8AFA79C91A13
:101540000C4813465B001344DB0003440833196066
:10155000094B1B68FF225A62032002F082F87B6964
:10156000BB60BB6883F3108800BF00BF1837BD465F
:1015700080BD00BFA00000207C01002030010020C1
:101580003101002080B584B000AFF8600B467A606E
:10159000FB727B68984700BF1037BD4680BD80B5A1
:1015A00000AF01F077FEFFF7ADF800F00FF800F0A4
:1015B00063F800F081F800F0D7F800F091F800F03F
:1015C00097F8FFF7ADF8FFF7C9F9FCE780B59AB0D7
:1015D00000AF07F1200348220021184605F038FA31
:1015E0003B1D00221A605A609A60DA601A615A61E3
:1015F0009A61204B1B6823F4C0631E4A43F40073B6
:1016000013601C4B1B6803F4C0633B603B680323FF
:101610003B624FF480337B624FF48073FB62402364
:101620003B630023FB6407F12003184602F00CFE25
:101630000346002B01D000F09EF86F237B6002234D
:10164000BB600023FB6000233B6100237B61002320
:10165000BB610023FB613B1D0121184603F068F9C3
:101660000346002B01D000F086F800BF6837BD4666
:1016700080BD00BF0004005880B594B000AF3B4669
:1016800050220021184605F0E3F94FF440533B6027
:101690004FF440437B640223BB641023FB643B464E
:1016A000184603F056FD0346002B01D000F063F806
:1016B00000BF5037BD4680BD80B500AF064B074A1E
:1016C0001A60054802F0BEF90346002B01D000F075
:1016D00052F800BF80BD00BF40010020000C005840
:1016E00080B400AF00BFBD465DF8047B70470000CA
:1016F00080B500AF1A4B1B4A1A60194B00225A6082
:10170000174B0F229A60164B47F6FF72DA60144BA4
:1017100000221A61124B00229A61114B0022DA61F9
:101720000F4B00225A610E4803F09AFF0346002B2C
:1017300001D000F020F800224FF6FF71084804F0B5
:101740008FF80346002B01D000F015F8044B1B68FE
:101750009A68034B1B6822F480629A6000BF80BDC8
:101760007C0100200028004080B400AF00BFBD46CF
:101770005DF8047B704780B400AF00BFBD465DF8E4
:10178000047B704780B400AF4FF0B043D3F8903083
:101790004FF0B04243F40043C2F8903000BFBD4662
:1017A0005DF8047B704780B485B000AF78604FF07F
:1017B000B0431A6D4FF0B0417B6813430B654FF097
:1017C000B0431A6D7B681340FB60FB6800BF1437A1
:1017D000BD465DF8047B704780B485B000AF78608B
:1017E0004FF0B0439A6D4FF0B0417B6813438B6567
:1017F0004FF0B0439A6D7B681340FB60FB6800BFFD
:101800001437BD465DF8047B704780B500AF4FF4D8
:101810000020FFF7C8FF002200212E2001F007FF63
:101820002E2001F01EFF00BF80BD000080B582B0F9
:1018300000AF78607B681B680D4A934213D14FF468
:101840008010FFF7B0FF002200212C2001F0EFFEF6
:101850002C2001F006FF002200212D2001F0E7FEE0
:101860002D2001F0FEFE00BF0837BD4680BD00BF41
:10187000000C005880B596B000AF786007F10803FF
:1018800050220021184605F0E3F87B681B68144AD3
:10189000934220D14FF40063BB604FF44073BB64AC
:1018A00007F10803184603F054FC0346002B01D04F
:1018B000FFF761FFFFF766FF4FF48060FFF78CFFD3
:1018C00000220021032001F0B2FE032001F0C9FE36
:1018D000786804F081F800BF5837BD4680BD00BF6E
:1018E0000028004080B400AF00BFBD465DF8047B17
:1018F000704780B400AFFEE780B400AFFEE780B46D
:1019000000AFFEE780B400AFFEE780B400AF00BFD9
:10191000BD465DF8047B704780B400AF00BFBD4694
:101920005DF8047B704780B400AF00BFBD465DF832
:10193000047B704780B500AF01F006FD00BF80BD9D
:1019400080B500AFFFF772FB00BF80BD80B500AF70
:1019500001F0A0FA00BF80BD80B500AF01F0D2FA5F
:1019600000BF80BD80B500AF02F048F800BF80BD69
:1019700080B586B000AF7860144A154BD31A7B61EE
:101980007B693B61134B1B68002B02D1114B124A40
:101990001A60104B1A687B6813443A699A4207D25E
:1019A00005F01EF803460C221A604FF0FF3309E0E1
:1019B000084B1B68FB60074B1A687B681344054A99
:1019C0001360FB6818461837BD4680BD0000032031
:1019D00000100000A00100207009002080B582B036
:1019E00000AF264B3B60A8220021386805F030F894
:1019F0003B6803221A613B6803225A613B68204A14
:101A00009A613B681F4ADA613B684FF480621A6250
:101A10003B6800229A623B6800225A623B680022BF
:101A2000DA623B68164A1A663B68174A5A663B6890
:101A300010229A663B6800221A673B680022DA6629
:101A40003B6800225A67BFF35F8F00237B600CE086
:101A50007B68C3F10F030D4AD15C3A687B6813447D
:101A60000A461A707B6801337B607B680F2BEFD9C5
:101A7000BFF35F8F00BF0837BD4680BDA4010020C3
:101A8000547300084C0200204C06002054750008D6
:101A900080B58AB000AFF860B9607A6000233B621D
:101AA000FB68DB68FB61FB681B69BB61BA69FB69AA
:101AB0009A4205D9BA69FB69D31A013B7B6207E0F8
:101AC000FB689A68B969FB69CB1A1344013B7B62D6
:101AD000FB689A68FB69D31A7A6A934228BF134657
:101AE0007B627A6A7B68934228BF13467B62FB68FD
:101AF0005A68FB6913447B617A6AB968786904F0B3
:101B000099FF3A6A7B6A13443B62BA687B6A134462
:101B1000BB607A687B6AD31A7B60FA697B6A13447C
:101B2000FB61FB689B68FA699A4201D10023FB6163
:101B3000BFF35F8FFB68FA69DA607B68002BB2D174
:101B40003B6A18462837BD4680BD80B588B000AFD7
:101B5000F860B9607A60FB68DB68FB61FB689A68D3
:101B6000FB69D31ABB61BA697B689A4211D9FB68D9
:101B70005A68FB6913443B617A68B968386904F0B4
:101B800059FFBFF35F8FFA697B681A44FB68DA601C
:101B90001FE0BB697B61FB685A68FB6913443B61CA
:101BA0007A69B968386904F045FF7A68BB69D31A65
:101BB0007B61FB685B683B61BA68BB6913447A6907
:101BC0001946386904F036FFBFF35F8FFB687A6906
:101BD000DA6000BF2037BD4680BD80B487B000AF5B
:101BE00078607B681B693B617B68DB68FB603A69F6
:101BF000FB689A4208D87B689A68FB68D21A3B69EE
:101C00001344013B7B6104E03A69FB68D31A013B52
:101C10007B617B6918461C37BD465DF8047B7047C5
:101C200080B58CB000AFF860B9607A603E4B3B6223
:101C30003B6A1B78DBB2002B01D1FFF7CFFEFA68BD
:101C400013465B001344DB006033374A1344FB61E7
:101C5000BB687B62FB691B69BB62FB69DB68BB61BC
:101C60000023FB62BA6ABB699A422BD9FB699A6866
:101C7000BB6AD31A7B617A697B68934228BF13469B
:101C80007B61FB695A68BB6A13443B617A693969B5
:101C9000786A04F0CFFEFA6A7B691344FB627A6AC1
:101CA0007B6913447B627A687B69D31A7B60BA6A6A
:101CB0007B691344BB62FB699B68BA6A9A4201D193
:101CC0000023BB62BA69BB6AD31A7B617A697B68FD
:101CD000934228BF13467B617B69002B19D0FB69B7
:101CE0005A68BB6A13443B617A693969786A04F0BF
:101CF000A1FEFA6A7B691344FB627A6A7B6913442A
:101D00007B627A687B69D31A7B60BA6A7B69134409
:101D1000BB62FB6A002B02D0FB69BA6A1A61FB6ADC
:101D200018463037BD4680BDA401002080B586B07E
:101D300000AFF860B9607A60EFF311834FF02001D3
:101D400081F311887B617A68B968F868FFF768FFEA
:101D500038617B6983F311883B6918461837BD46A3
:101D600080BD000080B588B000AFF860B9607A60CF
:101D7000BB68BB61FB685A1C13465B001344DB0065
:101D80001F4A13447B617B695B69022B29D0022BBC
:101D90002ED8002B02D0012B13D029E07869FFF751
:101DA0001CFF38613A697B689A4202D20023FB61CA
:101DB00021E07B68FB617A68B9697869FFF7C5FE45
:101DC00019E07869FFF709FF38617A683B69934247
:101DD00028BF1346FB61FA69B9697869FFF7B5FE58
:101DE00009E07A68B9697869FFF752FEF86102E0A4
:101DF0000023FB6100BFFB6918462037BD4680BD4C
:101E0000A401002080B588B000AFF860B9607A60A6
:101E10000E4BFB61FB691B78DBB2002B01D1FFF796
:101E2000DDFDEFF311834FF0200181F31188BB61D9
:101E30007A68B968F868FFF795FF7861BB6983F342
:101E400011887B6918462037BD4680BDA40100205B
:101E500080B58AB000AFF860B9607A603B60204B13
:101E60003B623B6A1B78DBB2002B01D1FFF7B6FD6A
:101E70001B4BFB61FB68022B2AD8EFF311834FF059
:101E8000200181F31188BB61FB685A1C13465B007B
:101E90001344DB00FA6913447B61FB68002B0ED00E
:101EA0007B69BA681A607B697A685A607B693A68AC
:101EB0009A607B6900221A617B690022DA607B6983
:101EC0003A6B5A61BB6983F3118800237B6202E09D
:101ED0004FF0FF337B627B6A18462837BD4680BDD2
:101EE000A401002080B584B000AF78600B46FB7081
:101EF0007B689B68FB60FB685A1C7B685B689A4246
:101F00000ED87B681A68FB681344FA781A70FB686D
:101F10005A1C7B689A607B68DB685A1C7B68DA60B5
:101F20007B689A687B685B689A4215D17B68186900
:101F30007B6819687B689B681A46FFF763FF024657
:101F40007B689B689A4204D07B684FF0FF32DA606E
:101F500002E07B6800229A6000BF1037BD4680BD5A
:101F600080B58AB000AFF860B9607A603B60BB684A
:101F70003B6201237B620123FB6107E03A6A7B68D5
:101F8000B2FBF3F33B62FB690133FB613A6A7B68A6
:101F90009A42F3D23A68FB699A4201D93B68FB61E5
:101FA0007B6B03F00103002B25D13B6B002B22D070
:101FB0007B6B03F00203002B05D03B68002B02D1A2
:101FC0003023FB7601E02023FB760BE03B6B013BEB
:101FD0003B63FB7E1946F868FFF784FFFB68DB680C
:101FE000002B07DB3B6B002B05D0FA693B6B9A4259
:101FF000ECD300E000BFFB68DB68002B55DB3B68DF
:10200000012B03D93B68013B3B6009E0BA687B6A5E
:10201000B2FBF3F37B617A697B689A4200D205E0F8
:102020007B6A7A6802FB03F37B62E8E7BA687B6A43
:10203000B2FBF3F37B617B697A6A02FB03F3BA6854
:10204000D31ABB601B4A7B6913441B781946F86896
:10205000FFF748FFFB68DB68002B08DB7A6A7B68C8
:10206000B2FBF3F37B627B6A002BDFD100E000BFA1
:102070007B6B03F00103002B17D03B6B002B14D0BC
:102080000AE03B6B013B3B632021F868FFF72AFF26
:10209000FB68DB68002B07DB3B6B002B05D0FA6984
:1020A0003B6B9A42EDD300E000BF00BF2837BD462E
:1020B00080BD00BF6875000880B588B002AFF860C9
:1020C000B9607A603B60BB68002BB8BF5B423B6184
:1020D00001237B6107E07B683A6992FBF3F33B6184
:1020E0007B6901337B617B683A699A42F3DA3A682B
:1020F0007B699A4201D93B687B613B6A002B0AD01D
:10210000BB68002B04DB7B6A03F00403002B02D0C6
:102110003B6A013B3B627B6A03F00203002B02D067
:102120003B68002B1CD07B6A03F00103002B17D106
:102130003B6A002B14D00AE03B6A013B3B62202142
:10214000F868FFF7CFFEFB68DB68002B07DB3B6A14
:10215000002B05D07A693B6A9A42EDD300E000BFBC
:10216000FB68DB68002B4ADBBB68002B07DABB6827
:102170005B42BB602D21F868FFF7B4FE08E07B6A84
:1021800003F00403002B03D02B21F868FFF7AAFE0D
:10219000FB68DB68002B32DB7B6A03F00203002B59
:1021A0001FD07B6A03F00103002B1AD13B68002B80
:1021B00017D13B6A002B14D00AE03B6A013B3B621B
:1021C0003021F868FFF78EFEFB68DB68002B07DB29
:1021D0003B6A002B05D07A693B6A9A42EDD300E056
:1021E00000BFFB68DB68002B09DBB9687B6A0193E1
:1021F0003B6A00933B687A68F868FFF7B1FE00BF5E
:102200001837BD4680BD000080B5A2B002AFF860AF
:10221000B9607A6007F110033B6540237B650023BA
:10222000BB65FB683B660023FB65BB681B7887F8D2
:102230007F30BB680133BB6097F87F30002B00F024
:102240009F8197F87F30252B40F08D8100233B67DD
:102250000123BB67BB681B7887F87F3097F87F3016
:10226000233B0D2B3ED801A252F823F0D5220008C3
:10227000E5220008E5220008E5220008E522000822
:10228000E5220008E5220008E5220008C522000832
:10229000E5220008A5220008E5220008E522000842
:1022A000B52200083B6F43F001033B67BB68013375
:1022B000BB601AE03B6F43F002033B67BB6801332E
:1022C000BB6012E03B6F43F004033B67BB68013324
:1022D000BB600AE03B6F43F008033B67BB68013318
:1022E000BB6002E00023BB6700BFBB6F002BB1D116
:1022F0000023FB66BB681B7887F87F3097F87F3038
:102300002F2B12D997F87F30392B0ED8BB680133A9
:10231000BB60FA6E13469B0013445B001A4697F8A5
:102320007F301344303BFB66E4E700237B67BB68E8
:102330001B7887F87F3097F87F302E2B1DD1BB6834
:102340000133BB60BB681B7887F87F3097F87F301C
:102350002F2B12D997F87F30392B0ED8BB68013359
:10236000BB607A6F13469B0013445B001A4697F8D4
:102370007F301344303B7B67E4E7BB681B7887F80A
:102380007F3097F87F306C2B03D097F87F30682B25
:1023900007D1BB680133BB60BB681B7887F87F300F
:1023A000EFE797F87F30252B00F0D180252BC0F286
:1023B000D580782B00F3D280582BC0F2CF80583BC9
:1023C000202B00F2CB8001A252F823F0C324000896
:1023D0005D2500085D2500085D2500085D250008D5
:1023E0005D2500085D2500085D2500085D250008C5
:1023F0005D2500085D2500085124000877240008A9
:102400005D2500085D2500085D2500085D250008A4
:102410005D2500085D2500085D2500085D25000894
:102420005D2500085D2500085D25000829250008B8
:102430005D2500085D250008E92400085D250008E9
:102440009D2400085D2500085D250008C3240008C0
:102450007B681B68191D7A6811601B68BB67BB6FBE
:1024600087F8673097F8672007F150031146184640
:10247000FFF738FD73E07B681B68191D7A681160EF
:102480001B68BB6707F150003B6F0193FB6E009325
:102490007B6F0A22B96FFFF70FFE60E07B681B6855
:1024A000191D7A6811601B68BB67B96F07F150008E
:1024B0003B6F0193FB6E00937B6F0A22FFF750FD89
:1024C0004DE07B681B68191D7A6811601B68BB674B
:1024D000B96F07F150003B6F0193FB6E00937B6F68
:1024E0001022FFF73DFD3AE07B681B68191D7A68F2
:1024F00011601B68BB66BB6E1B7887F87F30BB6EB4
:102500000133BB6697F87F30002B0BD097F87F2004
:1025100007F1500311461846FFF7E4FCFB6D002B52
:10252000E9DA1CE000BF1AE07B681B68191D7A68B5
:1025300011601B68BB67B96F07F15000002301935E
:102540000823009308231022FFF70AFD07E007F194
:10255000500325211846FFF7C5FC00E000BFBB680B
:102560000133BB6007E097F87F2007F15003114665
:102570001846FFF7B7FCFB6D002BBFF656AE00E028
:1025800000BFFB6D002B0DDDBB6D002B06D0BA6DBF
:1025900007F110031946F868FFF734FCFB6DBA6DBC
:1025A0001344FB65FB6D18468037BD4680BD00BFF8
:1025B0000EB480B585B000AF786007F12003BB6032
:1025C00007F108031A46F9697868FFF71DFEF860FD
:1025D000FB6818461437BD46BDE8804003B070471D
:1025E00080B400AF044B1B68C3F30B031846BD4611
:1025F0005DF8047B704700BF002004E080B400AFAA
:10260000044B1B681B0C9BB21846BD465DF8047B4F
:10261000704700BF002004E0B0B59EB002AF07F1E4
:10262000400300221A605A609A60DA600023FB6659
:102630000023BB664F4B3C1D1D460FCD0FC40FCD75
:102640000FC40FCD0FC495E8070003C422704A4B96
:10265000DB6BC3F30D037B667B6E9B0003F10053C2
:1026600003F540331A46454B1A60454BBB65454B55
:10267000FB65454B3B65454B7B6507F150031846B1
:1026800003F022FD0121022003F07CFF0121022042
:1026900003F048FF3E4B00221A703E4B00221A7096
:1026A0000F2387F840307F2387F84230FFF7A6FFDB
:1026B000F866FB6E9BB2A7F84C30FFF791FFB86647
:1026C000BB6E9BB2A7F84E3007F14003184603F0EB
:1026D0000DFC3B1D184603F0DBFB034687F8633017
:1026E00097F86330002B01D0FFF745F82A4A002104
:1026F000082004F073F8294A0021012004F06EF844
:10270000274A0021102004F069F8264A00210220FF
:1027100004F064F8244A0021042004F05FF8234BFD
:1027200001221A70224B00221A60224803F0F3FBA8
:10273000214B224A1A60224B00221A700023009378
:102740000023002200210020FFF782FB1D4A1E49C2
:102750000020FFF72DFF1D4A00214FF4807004F088
:102760003DF800214FF4807004F05AF800BF703734
:10277000BD46B0BD8C73000800400058840700209F
:102780004C090320580A0320192A00083D2A000892
:1027900089070020880700201D29000831610008F2
:1027A0001128000859620008C9610008800700204C
:1027B0007C07002074070020700700205C060020C2
:1027C0006106002060730008687300084D2A000845
:1027D00080B582B000AF78600B4B1B78002B06D021
:1027E000094B00221A70012004F046F808E07968CD
:1027F000064803F0C2FB0021102004F011F800BFCE
:102800000837BD4680BD00BF880700207407002040
:1028100080B5C6B000AFEFF31083C7F80431D7F826
:102820000431C7F80831374B1B78012B65D1354B84
:1028300000221A703449354803F0E6FB344B1B780C
:10284000002B57D107F58C73A3F58C7300221A6007
:102850000433FC220021184604F0FAF82A4B1B68C6
:102860001B7A022B0DD1284B1B680833C7F8143193
:10287000254B1B68B3F80B309BB20533C7F81031FA
:102880000AE0214B1B680833C7F814311E4B1B6844
:102890009B7A0333C7F810310023C7F80C310FE0DF
:1028A000D7F81421D7F80C3113441B783A46384630
:1028B000184904F0D5F8D7F80C310133C7F80C31BA
:1028C000D7F80C21D7F810319A42E9D372B600BF7D
:1028D0003B461A4610490020FFF76AFE094B0122C9
:1028E0001A70D7F80831C7F80031D7F8003183F3F0
:1028F000108801E000F05CF800BF00BF07F58C779E
:10290000BD4680BD800700207C07002074070020A2
:1029100089070020C8730008D073000880B500AF95
:10292000204BB3F809309BB24FF66252934214D059
:102930004FF66252934214DC4FF66052934204D039
:102940004FF66152934204D00BE0164803F0ECF8C6
:102950001EE0144803F084F91AE0124803F0CAF9A3
:1029600016E0114B0F4AB2F8092092B2A3F80120E9
:102970000D4B0122DA700C4B01221A70094B2122F7
:102980001A72084B0E225A72064B04229A7200BF2A
:102990000449064803F0F1FA0021102003F040FF3B
:1029A00000BF80BD640600206F0600207407002071
:1029B00080B500AF144B01221A70144B1B681B69C1
:1029C0009A68134B1B689A4211D8104B1B681B69FD
:1029D0009A680E4B1B681B69DB681A440C4B1B681A
:1029E0009A4204D90A4B1B68184603F0C5FC0948F3
:1029F00003F0A1FA0346002B04D10021102003F0BC
:102A00000FFF00BF00BF80BD8007002084070020AB
:102A10007C0700207407002080B582B000AF78608A
:102A20007968054803F0A9FA0021102003F0F8FEA8
:102A300000BF0837BD4680BD7407002080B400AFDA
:102A400000BFBD465DF8047B7047000080B584B0D0
:102A500000AF0123FB73FB1D012219460020FFF785
:102A600065F9B860BB68002B6ED0FB792F2B07D9B6
:102A7000FB79392B04D8FB79303BDBB2FB713AE0B0
:102A8000FB79602B07D9FB79662B04D8FB79573B80
:102A9000DBB2FB712FE0FB79402B07D9FB79462B8A
:102AA00004D8FB79373BDBB2FB7124E0FB790D2BBB
:102AB00002D0FB790A2B18D1284B1B68002B11D0B0
:102AC000264B1B681946264800F050F84FF48072D8
:102AD0000021234803F0BCFF204B00221A60214B49
:102AE00000221A600023FB7305E01F490020FFF756
:102AF0005FFD0023FB73FB7B012B25D1194B1B686A
:102B000003F00103002B0AD1FB791B01DAB2134B4E
:102B10001B6822F00F02D1B2114AD1540FE00F4BC3
:102B20001B680F4AD15CFA790C4B1B680A43D1B27F
:102B30000B4AD154094B1B680133084A1360094BF7
:102B40001B680133074A136000214FF4807003F0C3
:102B500067FE00BF1037BD4680BD00BF8C08002057
:102B60008C07002090080020D873000880B584B03E
:102B700000AF786039607B681B78FB72FB7A202B92
:102B800010D0202B20DC022B13D0102B1CD1184B83
:102B90001B68DB681B680833FB600021022003F020
:102BA0003FFE1CE0134BFB600021082003F038FEC1
:102BB00015E00F4B1B685B68DB680833FB60002186
:102BC000042003F02DFE0AE0094B1B685B681B68BC
:102BD0000833FB600021012003F022FE00BF3A68A9
:102BE0007968F86803F026FF00BF1037BD4680BD46
:102BF000840700206C06002080B588B000AFBA6062
:102C00007B600346FB810B467B731B4BDB6BC3F383
:102C10000D03FB61FB699B0003F1005303F5403397
:102C2000BB61164B01221A70BB69DB681B687B61B4
:102C30007B69FA89A3F809207B697A7BDA727B6960
:102C40000C337A7BB968184603F0F4FE00210020AB
:102C500003F002FB012003F02FFE7B6803F1080064
:102C60007B699B7803331A46796903F0E3FE00BF62
:102C70002037BD4680BD00BF0040005888070020B7
:102C800080B400AF054BDB68044A43F40043D360D3
:102C900000BFBD465DF8047B704700BF00040058CC
:102CA00080B483B000AF7860064BD3F8D4200549D8
:102CB0007B681343C1F8D43000BF0C37BD465DF8C4
:102CC000047B70470008005880B483B000AF786080
:102CD000054B1A6A04497B6813430B6200BF0C372B
:102CE000BD465DF8047B70470008005880B485B08D
:102CF00000AF78604FF0B0431A6D4FF0B0417B6881
:102D000013430B654FF0B0431A6D7B681340FB60B3
:102D1000FB6800BF1437BD465DF8047B704780B484
:102D200085B000AF78604FF0B043D3F850214FF03A
:102D3000B0417B681343C1F850314FF0B043D3F832
:102D400050217B681340FB60FB6800BF1437BD4611
:102D50005DF8047B704780B483B000AF78607B6817
:102D60001B6843F480327B681A6000BF0C37BD4695
:102D70005DF8047B704780B483B000AF78607B68F7
:102D80001B6843F001027B681A6000BF0C37BD4628
:102D90005DF8047B704780B483B000AF7860396021
:102DA0007B685A683B681B04DB431A407B685A60A7
:102DB00000BF0C37BD465DF8047B704780B483B01C
:102DC00000AF786039607B685A683B681B041A431F
:102DD0007B685A6000BF0C37BD465DF8047B7047C6
:102DE00080B483B000AF786039607B685A683B6814
:102DF000DB431A407B685A6000BF0C37BD465DF864
:102E0000047B704780B483B000AF786039607B6822
:102E10003A689A6000BF0C37BD465DF8047B704786
:102E200080B483B000AF786039603B681A047B6877
:102E30009A6000BF0C37BD465DF8047B704780B4D4
:102E400083B000AF786039607B68DA683B68134014
:102E50003A689A4201D1012300E0002318460C375A
:102E6000BD465DF8047B704780B483B000AF7860E6
:102E700039607B68DA693B6813403A689A4201D14D
:102E8000012300E0002318460C37BD465DF8047BA3
:102E90007047000080B500AF02211948FFF7E4FF3A
:102EA0000346002B09D0164B5B68DB4303F002039B
:102EB000002B02D000F0E8F81FE001211048FFF7D6
:102EC000D3FF0346002B08D00D4B5B6803F00103D2
:102ED000002B02D100F08EF80FE008210848FFF720
:102EE000C3FF0346002B09D0054B5B68DB4303F0AF
:102EF0000803002B02D000F013F900BF00BF80BD13
:102F0000000C005880B500AF02211A48FFF797FF68
:102F10000346002B09D1174B5B68DB4303F40033F6
:102F2000002B02D000F0A4F820E008211148FFF7A0
:102F300086FF0346002B09D10E4B5B68DB4303F48D
:102F40000023002B02D000F0CDF80FE0202109482B
:102F5000FFF775FF0346002B09D1064B5B68DB4387
:102F600003F40013002B02D000F05EF800BF00BF96
:102F700080BD00BF000C005880B500AF4FF480103A
:102F8000FFF7CDFE4FF40070FFF79EFE4FF4007088
:102F9000FFF786FE40BF20BFFFF772FE00BF80BD77
:102FA00080B500AF4FF48010FFF7A0FE0648FFF792
:102FB000E2FE0548FFF7CFFE2C2000F052FB2D204B
:102FC00000F04FFB00BF80BD000C005880B500AF83
:102FD00001210248FFF704FF00BF80BD000C00582C
:102FE00080B500AF01210248FFF71AFF00BF80BD86
:102FF000000C005880B500AF03F0B6F8012102487C
:10300000FFF700FF00BF80BD000C005880B500AF87
:1030100020210448FFF704FF20210248FFF7BBFEF0
:1030200000BF80BD000C005880B500AF20210348D0
:10303000FFF7C4FE03F0DCF800BF80BD000C0058B1
:1030400080B500AF02210248FFF7CAFE00BF80BD75
:10305000000C005880B500AF02210448FFF7E0FEE5
:1030600002210248FFF797FE00BF80BD000C005808
:1030700080B500AF02210348FFF7A0FE03F008F976
:1030800000BF80BD000C005880B500AF03F016F9FA
:1030900002210248FFF7B6FE00BF80BD000C0058B9
:1030A00080B582B000AF786008210C48FFF7C7FEFA
:1030B0000346002B07D00A4A7B68136008210748A3
:1030C000FFF769FE06E07B68984708210348FFF791
:1030D000A7FE00BF0837BD4680BD00BF000C0058EA
:1030E0009408002080B500AF08210648FFF766FE6F
:1030F000054B1B68984708210248FFF791FE00BF67
:1031000080BD00BF000C00589408002080B500AFBF
:1031100008210248FFF764FE00BF80BD000C005884
:1031200080B500AF03F072F908210248FFF76AFE8C
:1031300000BF80BD000C0058D458C4500433C418DC
:103140008C42F9D37047036004308842FBD3704748
:103150000C48854600F028F80B480C490C4A00231F
:10316000FFF7EDFF0B480C490023FFF7EEFF0B487C
:103170000B490023FFF7E9FF03F038FCFEF70FFAD5
:10318000FEE7000000000320040000207C00002077
:10319000AC7600087C00002070090020D8000320D5
:1031A0006F0B0320FEE7000080B400AF264B002227
:1031B0009A60254BD3F88830234A43F47003C2F851
:1031C00088304FF0B0431B684FF0B04243F001032A
:1031D00013604FF0B0434FF4E0229A604FF0B043D9
:1031E0001A684FF0B041194B13400B604FF0B043D9
:1031F000D3F894304FF0B04223F00503C2F8943076
:103200004FF0B043D3F898304FF0B04223F00103B1
:10321000C2F898304FF0B0430D4ADA604FF0B04337
:103220000B4A1A614FF0B0431B684FF0B04223F4D1
:10323000802313604FF0B04300229A6100BFBD4667
:103240005DF8047B704700BF00ED00E0FBFEF6FA7E
:103250000010042280B400AF054B5B68044A43F0C1
:103260000103536000BFBD465DF8047B704700BF9B
:10327000002004E080B400AF054B5B68044A43F0D3
:103280000203536000BFBD465DF8047B704700BF7A
:10329000002004E080B582B000AF0023FB710C4B2E
:1032A0001B680B4A43F480731360032000F0B4F9E9
:1032B0000F2000F00FF80346002B02D00123FB7112
:1032C00001E0FEF7A2FAFB7918460837BD4680BD3B
:1032D0000040005880B584B000AF78600023FB73D5
:1032E000174B1B78002B24D001F0CEFC0246144B68
:1032F0001B7819464FF47A73B3FBF1F3B2FBF3F387
:10330000184600F0CAF90346002B0FD17B680F2B3B
:1033100009D8002279684FF0FF3000F088F9094A97
:103320007B68136007E00123FB7304E00123FB7358
:1033300001E00123FB73FB7B18461037BD4680BDBF
:103340000C0000200800002080B400AF064B1B7862
:103350001A46064B1B681344044A136000BFBD465F
:103360005DF8047B704700BF0C0000209808002027
:1033700080B400AF034B1B681846BD465DF8047B64
:10338000704700BF9808002080B400AF034B1B6853
:103390001846BD465DF8047B704700BF080000205A
:1033A00080B500AFFFF756FF00BF80BD80B500AF0E
:1033B000FFF760FF00BF80BD80B485B000AF7860CC
:1033C0007B6803F00703FB600C4BDB68BB60BA68EB
:1033D0004FF6FF031340BB60FB681A02BB68134340
:1033E00043F0BF6343F40033BB60044ABB68D3605F
:1033F00000BF1437BD465DF8047B704700ED00E068
:1034000080B400AF044BDB681B0A03F007031846C7
:10341000BD465DF8047B704700ED00E080B483B0EA
:1034200000AF0346FB7197F90730002B0BDBFB79EC
:1034300003F01F02074997F907305B09012000FAE2
:1034400002F241F8232000BF0C37BD465DF8047B33
:10345000704700BF00E100E080B483B000AF0346D6
:10346000FB7197F90730002B12DBFB7903F01F0289
:103470000A4997F907305B09012000FA02F220336C
:1034800041F82320BFF34F8F00BFBFF36F8F00BF02
:1034900000BF0C37BD465DF8047B704700E100E0DB
:1034A00080B483B000AF0346FB7197F90730002B5F
:1034B0000CDBFB7903F01F02074997F907305B0922
:1034C000012000FA02F2403341F8232000BF0C37FC
:1034D000BD465DF8047B704700E100E080B483B036
:1034E00000AF0346FB7197F90730002B0CDBFB792B
:1034F00003F01F02074997F907305B09012000FA22
:1035000002F2603341F8232000BF0C37BD465DF85E
:10351000047B704700E100E080B483B000AF034655
:103520003960FB7197F90730002B0ADB3B68DAB290
:103530000C4997F907301201D2B20B4483F80023EB
:103540000AE03B68DAB20849FB7903F00F03043B59
:103550001201D2B20B441A7600BF0C37BD465DF89B
:10356000047B704700E100E000ED00E080B489B02A
:1035700000AFF860B9607A60FB6803F00703FB6195
:10358000FB69C3F10703042B28BF0423BB61FB695C
:103590000433062B02D9FB69033B00E000237B6167
:1035A0004FF0FF32BB6902FA03F3DA43BB681A40FB
:1035B0007B699A404FF0FF317B6901FA03F3D943ED
:1035C0007B680B40134318462437BD465DF8047BE7
:1035D0007047000080B582B000AF78607B68013B27
:1035E000B3F1807F01D301230FE00A4A7B68013BDE
:1035F00053600F214FF0FF30FFF78EFF054B002285
:103600009A60044B07221A60002318460837BD460B
:1036100080BD00BF10E000E080B582B000AF7860F0
:103620007868FFF7C9FE00BF0837BD4680BD80B58A
:1036300086B000AF0346B9607A60FB73FFF7E0FE27
:1036400078617A68B9687869FFF790FF024697F960
:103650000F3011461846FFF75FFF00BF1837BD4611
:1036600080BD80B582B000AF0346FB7197F907308B
:103670001846FFF7D3FE00BF0837BD4680BD80B5B2
:1036800082B000AF0346FB7197F907301846FFF789
:10369000E3FE00BF0837BD4680BD80B582B000AFF5
:1036A00078607868FFF796FF034618460837BD46EE
:1036B00080BD80B582B000AF0346FB7197F907303B
:1036C0001846FFF7EDFE00BF0837BD4680BD80B548
:1036D00082B000AF0346FB7197F907301846FFF739
:1036E000FDFE00BF0837BD4680BD000080B487B036
:1036F00000AF7860396000237B614CE13B681A6859
:1037000001217B6901FA03F31340FB60FB68002B86
:1037100000F03E813B685B6803F00303012B05D09A
:103720003B685B6803F00303022B30D17B689B6826
:103730003B617B695B00032202FA03F3DB433A69D6
:1037400013403B613B68DA687B695B0002FA03F374
:103750003A6913433B617B683A699A607B685B68AE
:103760003B6101227B6902FA03F3DB433A691340B0
:103770003B613B685B681B0903F001027B6902FA4D
:1037800003F33A6913433B617B683A695A603B68CB
:103790005B6803F00303032B17D07B68DB683B6196
:1037A0007B695B00032202FA03F3DB433A691340AF
:1037B0003B613B689A687B695B0002FA03F33A69F4
:1037C00013433B617B683A69DA603B685B6803F0EE
:1037D0000303022B23D17B69DA087B68083253F894
:1037E00022303B617B6903F007039B000F2202FA42
:1037F00003F3DB433A6913403B613B681A697B6919
:1038000003F007039B0002FA03F33A6913433B6199
:103810007B69DA087B680832396943F822107B68D3
:103820001B683B617B695B00032202FA03F3DB4305
:103830003A6913403B613B685B6803F003027B69B4
:103840005B0002FA03F33A6913433B617B683A6910
:103850001A603B685B6803F44033002B00F09880EB
:10386000544A7B699B08023352F823303B617B69E1
:1038700003F003039B000F2202FA03F3DB433A69D0
:1038800013403B617B68B3F1904F19D07B684A4A83
:10389000934213D07B68494A93420DD07B68484AD3
:1038A000934207D07B68474A934201D1042308E042
:1038B000072306E0032304E0022302E0012300E0E3
:1038C00000237A6902F00302920093403A6913439D
:1038D0003B6138497B699B0802333A6941F82320F0
:1038E000394B1B683B61FB68DB433A6913403B6122
:1038F0003B685B6803F48013002B03D03A69FB68D4
:1039000013433B61304A3B6913602F4B5B683B615B
:10391000FB68DB433A6913403B613B685B6803F437
:103920000013002B03D03A69FB6813433B61264A1E
:103930003B695360244BD3F880303B61FB68DB4329
:103940003A6913403B613B685B6803F48033002BAA
:1039500003D03A69FB6813433B611B4A3B69C2F8D9
:103960008030194BD3F884303B61FB68DB433A6904
:1039700013403B613B685B6803F40033002B03D0CA
:103980003A69FB6813433B610F4A3B69C2F88430D4
:103990007B6901337B613B681A687B6922FA03F318
:1039A000002B7FF4ABAE00BF00BF1C37BD465DF8F7
:1039B000047B7047000001400004004800080048F4
:1039C000000C0048001000480008005880B483B084
:1039D00000AF78600B467B8013467B707B78002BB2
:1039E00003D07A887B689A6102E07A887B689A6261
:1039F00000BF0C37BD465DF8047B704780B582B0D0
:103A000000AF0A4BDB687B60084B1A687B68DB43BE
:103A1000064913400B60054A7B685360786800F0E4
:103A200007F800BF0837BD4680BD00BF001500582D
:103A300080B483B000AF786000BF0C37BD465DF83E
:103A4000047B704780B584B000AF78600023FB73BF
:103A50007B68002B1ED0134BBB607B6893F838301B
:103A6000DBB2002B02D17868FDF7E0FEB86800F009
:103A70005BF8BB681B6843F00112BB681A6078688A
:103A800000F02CF87B6800225A637B68012283F8DF
:103A9000382001E00123FB73FB7B18461037BD463D
:103AA00080BD00BF000C005880B485B000AFF86046
:103AB000B9601346FB7100BF1437BD465DF8047B47
:103AC000704780B485B000AFF860B9601346FB71F1
:103AD00000BF1437BD465DF8047B704780B485B0E5
:103AE00000AF78600023FB600FE07A68FB689B0002
:103AF00013440B4A5A607A68FB6806339B001344F0
:103B0000084A5A60FB680133FB60FB68052BECD95F
:103B100000BF00BF1437BD465DF8047B704700BF8F
:103B2000A93A0008C33A000880B483B000AF7860B7
:103B30007B6800221A607B684FF03F125A607B68F6
:103B40003F229A6000BF0C37BD465DF8047B70478A
:103B500080B400AF054B1B68044A43F480731360C4
:103B600000BFBD465DF8047B704700BF00040058ED
:103B700080B400AF044B1B6803F4C0631846BD4615
:103B80005DF8047B704700BF0004005880B400AFAC
:103B90004FF0B0431B6803F48013B3F5801F01D1CD
:103BA000012300E000231846BD465DF8047B704702
:103BB00080B400AF4FF0B0431B684FF0B04243F405
:103BC0008033136000BFBD465DF8047B704780B44E
:103BD00000AF4FF0B0431B684FF0B04223F4803386
:103BE000136000BFBD465DF8047B704780B400AF32
:103BF0004FF0B0431B6803F40033B3F5003F01D12D
:103C0000012300E000231846BD465DF8047B7047A1
:103C100080B400AF4FF0B0431B684FF0B04243F4A4
:103C20008073136000BFBD465DF8047B704780B4AD
:103C300000AF4FF0B0431B684FF0B04223F48073E5
:103C4000136000BFBD465DF8047B704780B400AFD1
:103C50004FF0B0431B6803F48063B3F5806F01D16C
:103C6000012300E000231846BD465DF8047B704741
:103C700080B483B000AF78604FF0B0435B6823F04E
:103C8000FE427B681B064FF0B04113434B6000BF00
:103C90000C37BD465DF8047B704780B400AF4FF031
:103CA000B043D3F898304FF0B04243F00103C2F86C
:103CB000983000BFBD465DF8047B704780B400AF0C
:103CC0004FF0B043D3F898304FF0B04223F00103E7
:103CD000C2F8983000BFBD465DF8047B704780B4E1
:103CE00000AF4FF0B043D3F8983003F00203022B3B
:103CF00001D1012300E000231846BD465DF8047B96
:103D0000704780B400AF4FF0B043D3F890304FF01D
:103D1000B04243F00103C2F8903000BFBD465DF8E9
:103D2000047B704780B400AF4FF0B043D3F89030BD
:103D30004FF0B04223F00103C2F8903000BFBD46FF
:103D40005DF8047B704780B400AF4FF0B043D3F808
:103D500090304FF0B04243F00403C2F8903000BFFF
:103D6000BD465DF8047B704780B400AF4FF0B043B0
:103D7000D3F890304FF0B04223F00403C2F89030F3
:103D800000BFBD465DF8047B704780B400AF4FF0C4
:103D9000B043D3F8903003F00203022B01D101238A
:103DA00000E000231846BD465DF8047B704780B4F0
:103DB00000AF4FF0B043D3F894304FF0B04243F02F
:103DC0000103C2F8943000BFBD465DF8047B704724
:103DD00080B400AF4FF0B043D3F894304FF0B0420E
:103DE00023F00103C2F8943000BFBD465DF8047BA8
:103DF000704780B400AF4FF0B043D3F8943003F075
:103E00000203022B01D1012300E000231846BD4626
:103E10005DF8047B704780B400AF4FF0B043D3F837
:103E200094304FF0B04243F00403C2F8943000BF26
:103E3000BD465DF8047B704780B400AF4FF0B043DF
:103E4000D3F894304FF0B04223F00403C2F894301A
:103E500000BFBD465DF8047B704780B400AF4FF0F3
:103E6000B043D3F8943003F00803082B01D10123A9
:103E700000E000231846BD465DF8047B704780B41F
:103E800083B000AF78604FF0B043D3F8943023F4A0
:103E900070627B681B024FF0B0411343C1F894304D
:103EA00000BF0C37BD465DF8047B704780B400AF9F
:103EB0004FF0B0431B684FF0B04243F00103136072
:103EC00000BFBD465DF8047B704780B400AF4FF083
:103ED000B0431B684FF0B04223F00103136000BFF2
:103EE000BD465DF8047B704780B400AF4FF0B0432F
:103EF0001B6803F00203022B01D1012300E0002321
:103F00001846BD465DF8047B704780B483B000AFAF
:103F100078604FF0B0431B6823F0F0024FF0B041DF
:103F20007B6813430B6000BF0C37BD465DF8047B14
:103F3000704780B483B000AF4FF0B0431B6803F00C
:103F4000F0037B607B68B02B01D9B0237B607B687A
:103F500018460C37BD465DF8047B704780B483B0CB
:103F600000AF78604FF0B0435B6823F47F427B681A
:103F70001B024FF0B04113434B6000BF0C37BD46EE
:103F80005DF8047B704780B483B000AF78604FF079
:103F9000B0439B6823F003024FF0B0417B681343AA
:103FA0008B6000BF0C37BD465DF8047B704780B462
:103FB00000AF4FF0B0439B6803F00C031846BD46BA
:103FC0005DF8047B704780B483B000AF78604FF039
:103FD000B0439B6823F0F0024FF0B0417B6813437D
:103FE0008B6000BF0C37BD465DF8047B704780B422
:103FF00083B000AF78604FF0B043D3F8083123F0BE
:10400000F0024FF0B0417B681343C1F8083100BFA4
:104010000C37BD465DF8047B704780B483B000AFB9
:1040200078604FF0B043D3F8083123F00F027B687B
:104030001B094FF0B0411343C1F8083100BF0C37E2
:10404000BD465DF8047B704780B483B000AF7860F4
:104050004FF0B0439B6823F4E0624FF0B0417B68BF
:1040600013438B6000BF0C37BD465DF8047B70477F
:1040700080B483B000AF78604FF0B0439B6823F406
:1040800060524FF0B0417B6813438B6000BF0C3728
:10409000BD465DF8047B704780B400AF4FF0B0437D
:1040A0009B6803F0F0031846BD465DF8047B70473B
:1040B00080B400AF4FF0B043D3F808311B0103F0D8
:1040C000F0031846BD465DF8047B704780B400AF2E
:1040D0004FF0B0431B684FF0B04243F08073136061
:1040E00000BFBD465DF8047B704780B400AF4FF061
:1040F000B0431B684FF0B04223F08073136000BFE1
:10410000BD465DF8047B704780B400AF4FF0B0430C
:104110001B6803F00073B3F1007F01D1012300E0BD
:1041200000231846BD465DF8047B704780B400AF9D
:104130004FF0B043DB681B0A03F07F031846BD460F
:104140005DF8047B704780B400AF4FF0B043DB688C
:1041500003F060431846BD465DF8047B704780B4A9
:1041600000AF4FF0B043DB6803F070031846BD4664
:104170005DF8047B704780B400AF4FF0B043DB685C
:1041800003F003031846BD465DF8047B704780B416
:1041900000AF4FF0B0439B6803F48033B3F5803F2A
:1041A00001D1012300E000231846BD465DF8047BE1
:1041B000704780B400AF4FF0B043D3F8083103F438
:1041C0000033B3F5003F01D1012300E0002318467E
:1041D000BD465DF8047B704780B400AF4FF0B0433C
:1041E000D3F8083103F48033B3F5803F01D10123C4
:1041F00000E000231846BD465DF8047B704780B49C
:1042000000AF4FF0B0439B6803F40033B3F5003FB9
:1042100001D1012300E000231846BD465DF8047B70
:10422000704780B400AF4FF0B0439B6803F4802325
:10423000B3F5802F01D1012300E000231846BD46CD
:104240005DF8047B7047000090B58DB000AF7860DA
:104250007B68002B01D1012363E37B681B6803F0BB
:104260002003002B00F08D80FFF7A1FEF862FFF71E
:1042700082FFB862FB6A002B05D0FB6A0C2B47D18A
:10428000BB6A012B44D17B68DB69002B01D1012380
:1042900047E37B685C6AFFF74CFE03469C4214D9F7
:1042A0007B685B6A184600F003FD0346002B01D0D3
:1042B000012336E37B685B6A1846FFF726FE7B68BE
:1042C0001B6A1846FFF74AFE13E07B685B6A1846D4
:1042D000FFF71BFE7B681B6A1846FFF73FFE7B68F3
:1042E0005B6A184600F0E4FC0346002B01D0012372
:1042F00017E300F0C9FC0346A44A1360A44B1B68F3
:104300001846FEF7E7FF0346002B39D0012308E3E8
:104310007B68DB69002B1ED0FFF7C8FDFFF728F88C
:10432000786208E0FFF724F802467B6AD31A022B72
:1043300001D90323F5E2FFF7D7FD0346002BF1D0A7
:104340007B685B6A1846FFF7E0FD7B681B6A1846CE
:10435000FFF704FE15E0FFF7B8FDFFF709F87862F4
:1043600008E0FFF705F802467B6AD31A022B01D951
:104370000323D6E2FFF7B8FD0346002BF1D100E09E
:1043800000BF7B681B6803F00103002B47D0FFF7D9
:104390000EFE3862FFF7EFFEF8613B6A082B05D08E
:1043A0003B6A0C2B08D1FB69032B05D17B685B684A
:1043B000002B34D10123B4E27B685B68B3F5803F06
:1043C00002D1FFF7F5FB01E0FFF701FC7B685B68BA
:1043D000002B12D0FEF7CCFF786208E0FEF7C8FF92
:1043E00002467B6AD31A642B01D9032399E2FFF7B3
:1043F000FDFB0346002BF1D011E0FEF7B9FF786218
:1044000008E0FEF7B5FF02467B6AD31A642B01D998
:10441000032386E2FFF7EAFB0346002BF1D17B681A
:104420001B6803F00203002B4CD0FFF7C0FDB861FE
:10443000FFF7A1FE7861BB69042B05D0BB690C2B8B
:104440000ED17B69022B0BD17B68DB68002B01D17D
:10445000012366E27B681B691846FFF709FC31E01F
:104460007B68DB68002B19D0FFF7D2FBFEF780FFDB
:10447000786208E0FEF77CFF02467B6AD31A022BC3
:1044800001D903234DE2FFF7E1FB0346002BF1D0F6
:104490007B681B691846FFF7EBFB13E0FFF7C7FBD0
:1044A000FEF766FF786208E0FEF762FF02467B6A6D
:1044B000D31A022B01D9032333E2FFF7C7FB0346CC
:1044C000002BF1D17B681B6803F00803002B06D199
:1044D0007B681B6803F01003002B00F0A3807B684F
:1044E0005B69002B76D07B681B6803F01003002B00
:1044F00046D0FFF77EFC0346002B13D1FFF757FC95
:10450000FEF736FF786208E0FEF732FF02467B6A6C
:10451000D31A022B01D9032303E2FFF76AFC0346F7
:10452000002BF1D0FFF777FCFEF722FF786208E05E
:10453000FEF71EFF02467B6AD31A032B01D9032321
:10454000EFE1FFF78AFC0346002BF1D07B689B6903
:104550001846FFF794FCFFF73BFCFEF709FF786273
:1045600008E0FEF705FF02467B6AD31A022B01D949
:104570000323D6E1FFF73DFC0346002BF1D151E0C8
:10458000FFF715FCFEF7F4FE78620CE00400002053
:1045900008000020FEF7ECFE02467B6AD31A022BCD
:1045A00001D90323BDE1FFF724FC0346002BF1D022
:1045B000FFF742FC08E0FEF7DBFE02467B6AD31AF7
:1045C000032B01D90323ACE1FFF747FC0346002B83
:1045D000F1D127E0FFF730FCFEF7CAFE786208E071
:1045E000FEF7C6FE02467B6AD31A032B01D90323CA
:1045F00097E1FFF732FC0346002BF1D1FFF7E8FB10
:10460000FEF7B6FE786208E0FEF7B2FE02467B6A6D
:10461000D31A022B01D9032383E1FFF7EAFB0346F8
:10462000002BF1D17B681B6803F00403002B5BD0E7
:10463000A74B1B6803F48073002B14D1FFF788FA93
:10464000FEF796FE786208E0FEF792FE02467B6A6D
:10465000D31A022B01D9032363E19D4B1B6803F49A
:104660008073002BF0D07B689B68012B02D1FFF791
:1046700048FB0CE07B689B68052B04D1FFF763FBCC
:10468000FFF73FFB03E0FFF74DFBFFF76DFB7B6898
:104690009B68002B14D0FEF76BFE78620AE0FEF7F1
:1046A00067FE02467B6AD31A41F28832934201D9EF
:1046B000032336E1FFF769FB0346002BEFD013E03D
:1046C000FEF756FE78620AE0FEF752FE02467B6A6B
:1046D000D31A41F28832934201D9032321E1FFF733
:1046E00054FB0346002BEFD17B681B6803F04003AB
:1046F000002B2CD07B689B6A002B14D0FFF7CDFADF
:10470000FEF736FE786208E0FEF732FE02467B6A6C
:10471000D31A022B01D9032303E1FFF7E0FA034682
:10472000002BF1D013E0FFF7C9FAFEF721FE786203
:1047300008E0FEF71DFE02467B6AD31A022B01D960
:104740000323EEE0FFF7CBFA0346002BF1D17B68A1
:10475000DB6A002B00F0E480FFF729FC38614FF0A2
:10476000B043DB68FB607B68DB6A022B40F0B480FF
:10477000FB6803F003027B681B6B9A4223D1FB6842
:1047800003F070027B685B6B9A421CD1FB681B0ACA
:1047900003F07F027B689B6B9A4214D1FB6803F4A1
:1047A00078127B68DB6B9A420DD1FB6803F0606284
:1047B0007B681B6C9A4206D1FB6803F060427B6801
:1047C0005B6C9A425DD03B690C2B58D04FF0B043E4
:1047D0001B6803F08063002B01D00123A1E0FFF7E9
:1047E00084FCFEF7C5FD786208E0FEF7C1FD0246D5
:1047F0007B6AD31A022B01D9032392E04FF0B04316
:104800001B6803F00073002BEFD14FF0B043DA6860
:10481000304B13407A68116B7A68526B11437A6897
:10482000926B120211437A68D26B11437A68126C50
:1048300011437A68526C0A434FF0B0411343CB6086
:10484000FFF744FC4FF0B043DB684FF0B04243F059
:104850008053D360FEF78CFD786208E0FEF788FD98
:1048600002467B6AD31A022B01D9032359E04FF089
:10487000B0431B6803F00073002BEFD050E001231E
:104880004FE04FF0B0431B6803F00073002B47D19B
:10489000FFF71CFC4FF0B043DB684FF0B04243F031
:1048A0008053D360FEF764FD786208E0FEF760FD98
:1048B00002467B6AD31A022B01D9032331E04FF061
:1048C000B0431B6803F00073002BEFD028E000BF5B
:1048D000000400588C80C1113B690C2B1ED0FFF7DF
:1048E00004FCFEF745FD786208E0FEF741FD024654
:1048F0007B6AD31A022B01D9032312E04FF0B04395
:104900001B6803F00073002BEFD14FF0B043DA685F
:104910004FF0B041054B1340CB6001E0012300E0B4
:10492000002318463437BD4690BD00BFFCFFFEEEA5
:1049300080B584B000AF786039607B68002B01D10E
:1049400001232DE1984B1B6803F007033A689A4254
:104950001BD9954B1B6823F0070293493B6813430F
:104960000B60FEF705FDF86008E0FEF701FD02466A
:10497000FB68D31A022B01D9032311E18A4B1B6870
:1049800003F007033A689A42EFD17B681B6803F093
:104990000203002B16D07B689B681846FFF713FBB9
:1049A000FEF7E6FCF86008E0FEF7E2FC0246FB6872
:1049B000D31A022B01D90323F2E0FFF7E8FB0346E9
:1049C000002BF1D07B681B6803F02003002B16D06E
:1049D0007B685B691846FFF70AFBFEF7C9FCF860C5
:1049E00008E0FEF7C5FC0246FB68D31A022B01D98A
:1049F0000323D5E0FFF7DDFB0346002BF1D07B68F6
:104A00001B6803F04003002B16D07B689B69184697
:104A1000FFF703FBFEF7ACFCF86008E0FEF7A8FC2C
:104A20000246FB68D31A022B01D90323B8E0FFF733
:104A3000D3FB0346002BF1D07B681B6803F0040313
:104A4000002B16D07B68DB681846FFF7FDFAFEF7EF
:104A50008FFCF86008E0FEF78BFC0246FB68D31A77
:104A6000022B01D903239BE0FFF7C9FB0346002B70
:104A7000F1D07B681B6803F00803002B17D07B681C
:104A80001B69DB001846FFF7F3FAFEF771FCF860CC
:104A900008E0FEF76DFC0246FB68D31A022B01D931
:104AA00003237DE0FFF7BDFB0346002BF1D07B68BD
:104AB0001B6803F00103002B43D07B685B68022B6B
:104AC00006D1FFF793F80346002B1ED1012367E0C0
:104AD0007B685B68032B06D1FFF716FB0346002BB0
:104AE00013D101235CE07B685B68002B06D1FFF7E4
:104AF000FBF90346002B08D1012351E0FFF7A6F88C
:104B00000346002B01D101234AE07B685B6818460D
:104B1000FFF739FAFEF72CFCF8600AE0FEF728FCF4
:104B20000246FB68D31A41F28832934201D903232B
:104B300036E0FFF73CFA02467B685B689B009A42CE
:104B4000ECD1194B1B6803F007033A689A421BD259
:104B5000154B1B6823F0070213493B6813430B6096
:104B6000FEF706FCF86008E0FEF702FC0246FB6870
:104B7000D31A022B01D9032312E00B4B1B6803F05D
:104B800007033A689A42EFD100F07EF80346074ADD
:104B90001360FEF7F9FB03461846FEF79BFB03463E
:104BA00018461037BD4680BD004000580400002064
:104BB00090B585B000AFFFF7FAF978607B68002BFD
:104BC0000AD1FFF7B6F903461B0903F00F032B4A7E
:104BD00052F82330FB604BE07B68042B02D1284B5A
:104BE000FB6045E07B68082B0AD1FEF7CFFF034648
:104BF000012B02D1224BFB603AE0224BFB6037E0F5
:104C0000FFF7B9FA38603B68022B03D03B68032BEF
:104C100003D00DE01A4BBB6015E0FEF7B7FF03466B
:104C2000012B02D1164BBB600DE0164BBB600AE0B6
:104C3000FFF77FF903461B0903F00F030F4A52F8F1
:104C40002330BB6000BFFFF771FA0246BB6803FB6D
:104C500002F4FFF784FA03461B090133B4FBF3F4B3
:104C6000FFF771FA03465B0F0133B4FBF3F3FB600C
:104C7000FB6818461437BD4690BD00BFB8750008E4
:104C80000024F4000048E80198B500AFFFF790FF5A
:104C90000446FFF701FA03461B0903F00F03034A1A
:104CA00052F82330B4FBF3F3184698BD787500082A
:104CB00090B585B000AF78607B68B02B03D9154BF9
:104CC000DB6AFB6007E07B681B0903F00F03114AF6
:104CD00052F82330FB60FFF7EBF903461B0903F0A2
:104CE0000F030D4A52F82330FA68B2FBF3F3BB60AE
:104CF000BB680A4AA2FB03239C0CFEF739FF03465C
:104D00001946204600F00CF8034618461437BD46F5
:104D100090BD00BFB87500087875000883DE1B439E
:104D200090B593B000AF78603960374B07F1280435
:104D30000FCB84E80F00354A07F11C0307CA83E84C
:104D40000700334B07F10C040FCB84E80F0000235E
:104D50007B643B68B3F5007F1AD100233B6413E00A
:104D60003B6C9B0048333B4453F8203C7A689A42A2
:104D700007D83B6C9B0048333B4453F83C3C7B6476
:104D800020E03B6C01333B643B6C032BE8D919E01A
:104D90000023FB6313E0FB6B9B0048333B4453F859
:104DA0002C3C7A689A4207D8FB6B9B0048333B4403
:104DB00053F83C3C7B6405E0FB6B0133FB63FB6B0E
:104DC000022BE8D9134B1B6823F0070211497B6CB7
:104DD00013430B60FEF7CCFAB86308E0FEF7C8FA9D
:104DE0000246BB6BD31A022B01D9032307E0094B00
:104DF0001B6803F007037A6C9A42EFD10023184630
:104E00004C37BD4690BD00BFF87300080874000819
:104E1000147400080040005880B400AF4FF0B04355
:104E2000D3F8903003F00103012B01D1012300E0FE
:104E300000231846BD465DF8047B704780B400AF80
:104E40004FF0B043D3F8903003F00203022B01D1AE
:104E5000012300E000231846BD465DF8047B70473F
:104E600080B483B000AF78604FF0B043D3F8943093
:104E700023F440424FF0B0417B681343C1F89430B3
:104E800000BF0C37BD465DF8047B704780B483B02B
:104E900000AF78604FF0B0435B6A23F003024FF03D
:104EA000B0417B6813434B6200BF0C37BD465DF8D1
:104EB000047B704780B483B000AF78604FF0B0439C
:104EC0005B6A23F030024FF0B0417B6813434B62C2
:104ED00000BF0C37BD465DF8047B704780B483B0DB
:104EE00000AF78604FF0B043D3F8883023F003026E
:104EF0004FF0B0417B681343C1F8883000BF0C37D6
:104F0000BD465DF8047B704780B483B000AF786025
:104F10004FF0B043D3F8883023F440624FF0B041F3
:104F20007B681343C1F8883000BF0C37BD465DF87D
:104F3000047B704780B483B000AF78604FF0B0431B
:104F4000D3F888207B681B0903F47F23DB431A40D6
:104F50007B681B0103F47F234FF0B0411343C1F87A
:104F6000883000BF0C37BD465DF8047B704780B4C5
:104F700083B000AF78604FF0B043D3F888207B68EF
:104F80001B0C1B04DB431A407B681B044FF0B04131
:104F90001343C1F8883000BF0C37BD465DF8047B71
:104FA000704780B483B000AF78604FF0B043D3F85F
:104FB000883023F440024FF0B0417B681343C1F8BE
:104FC000883000BF0C37BD465DF8047B704780B465
:104FD00083B000AF78604FF0B043D3F8883023F04F
:104FE00040424FF0B0417B681343C1F8883000BFA6
:104FF0000C37BD465DF8047B704780B483B000AFCA
:1050000078604FF0B043D3F8883023F040624FF01F
:10501000B0417B681343C1F8883000BF0C37BD46F0
:105020005DF8047B704780B582B000AF7860786827
:10503000FFF7E3FF00BF0837BD4680BD80B483B0F3
:1050400000AF78604FF0B043D3F8883023F040527F
:105050004FF0B0417B681343C1F8883000BF0C3774
:10506000BD465DF8047B704780B483B000AF7860C4
:105070004FF0B043D3F8903023F440724FF0B0417A
:105080007B681343C1F8903000BF0C37BD465DF814
:10509000047B704780B400AF4FF0B043D3F890303A
:1050A00003F440731846BD465DF8047B704780B436
:1050B00000AF4FF0B043D3F890304FF0B04243F41C
:1050C0008033C2F8903000BFBD465DF8047B704766
:1050D00080B400AF4FF0B043D3F890304FF0B042FF
:1050E00023F48033C2F8903000BFBD465DF8047BE6
:1050F000704780B400AF4FF0B0431B684FF0B04230
:1051000043F08063136000BFBD465DF8047B7047C9
:1051100080B400AF4FF0B0431B684FF0B04223F0B3
:105120008063136000BFBD465DF8047B704780B4A8
:1051300000AF4FF0B0431B6803F00063B3F1006FA2
:1051400001D1012300E000231846BD465DF8047B31
:10515000704780B588B000AF78600023FB770023EC
:10516000BB777B681B6803F04003002B34D07B685F
:105170001B6BB3F5400F21D0B3F5400F1BD8B3F52F
:10518000000F1DD0B3F5000F15D8002B0BD0B3F5D1
:10519000800F10D14FF0B043DB684FF0B04243F4C2
:1051A0008033D3600DE07B680433184600F047F984
:1051B0000346FB7705E00123FB7702E000BF00E038
:1051C00000BFFB7F002B05D17B681B6B1846FFF7E8
:1051D000E8FE01E0FB7FBB777B681B6803F400639C
:1051E000002B46D0FFF756FFB8617B681B6CBA698D
:1051F0009A423CD0FEF7ACFCBB69002B05D17B6822
:105200001B6C1846FFF730FF2EE04FF0B043D3F889
:1052100090307B61FFF74BFFFFF75AFF7B6923F468
:1052200040727B681B6C13437B614FF0B0427B691B
:10523000C2F89030FFF7F0FD0346012B14D1FEF7C2
:1052400097F838610BE0FEF793F802463B69D31AF2
:1052500041F28832934202D90323FB7704E0FFF73F
:10526000EDFD0346012BEED1FB7FBB7701E0FB7F19
:10527000BB777B681B6803F00103002B04D07B68BD
:105280009B691846FFF72AFE7B681B6803F0020340
:10529000002B04D07B68DB691846FFF735FE7B687E
:1052A0001B6803F01003002B04D07B689B6A184630
:1052B000FFF75DFE7B681B6803F02003002B04D022
:1052C0007B68DB6A1846FFF752FE7B681B6803F0B9
:1052D0000403002B04D07B681B6A1846FFF72AFEE4
:1052E0007B681B6803F00803002B04D07B685B6AB3
:1052F0001846FFF71FFE7B681B6803F48073002BC2
:1053000022D07B685B6B1846FFF78DFE7B685B6B7A
:10531000B3F1006F07D14FF0B043DB684FF0B042FC
:1053200043F08073D3607B685B6BB3F1806F0BD10C
:105330007B680433184600F0DDF80346FB77FB7FFB
:10534000002B01D0FB7FBB777B681B6803F40073E5
:10535000002B2BD07B689B6BB3F1804F08D07B6810
:105360009B6BB3F1004F03D07B689B6B002B05D187
:105370007B689B6B1846FFF72AFE0AE07B689B6BF5
:1053800023F08053FB600020FFF721FEF868FFF751
:1053900034FE7B689B6BB3F1C05F07D14FF0B04325
:1053A000DB684FF0B04243F08073D3607B681B68CA
:1053B00003F48063002B22D07B68DB6B1846FFF779
:1053C0003DFE7B68DB6BB3F1005F07D14FF0B0436C
:1053D000DB684FF0B04243F48033D3607B68DB6B13
:1053E000B3F1805F0BD17B680433184600F0DDF821
:1053F0000346FB77FB7F002B01D0FB7FBB777B68ED
:105400001B6803F48053002B04D07B685B6C184648
:10541000FFF726FD7B681B6803F40053002B09D0BF
:105420007B68DB6C1846FFF745FD7B689B6C184674
:10543000FFF72CFDBB7F18462037BD4680BD80B5E9
:1054400084B000AF78600023FB73FFF761FEFDF7C7
:105450008FFFB86009E0FDF78BFF0246BB68D31AE7
:10546000022B02D90323FB7304E0FFF760FE03461F
:10547000002BF0D1FB7B002B37D14FF0B0431B69E1
:1054800023F4FE427B681B681B024FF0B0411343BC
:105490000B614FF0B0431B6923F478127B685B68A3
:1054A0004FF0B04113430B61FFF723FEFDF760FFA0
:1054B000B86009E0FDF75CFF0246BB68D31A022B17
:1054C00002D90323FB7304E0FFF731FE0346012BEF
:1054D000F0D1FB7B002B08D14FF0B0431A697B68F9
:1054E0001B694FF0B04113430B61FB7B184610372B
:1054F000BD4680BD80B584B000AF78600023FB73EB
:10550000FFF706FEFDF734FFB86009E0FDF730FF56
:105510000246BB68D31A022B02D90323FB7304E0B3
:10552000FFF705FE0346002BF0D1FB7B002B37D1A4
:105530004FF0B0431B6923F4FE427B681B681B02DB
:105540004FF0B04113430B614FF0B0431B6923F0A0
:1055500060627B689B684FF0B04113430B61FFF7BB
:10556000C8FDFDF705FFB86009E0FDF701FF024641
:10557000BB68D31A022B02D90323FB7304E0FFF7A5
:10558000D6FD0346012BF0D1FB7B002B08D14FF059
:10559000B0431A697B681B694FF0B04113430B613C
:1055A000FB7B18461037BD4680BD80B584B000AF88
:1055B00078600023FB73FFF7ABFDFDF7D9FEB86001
:1055C00009E0FDF7D5FE0246BB68D31A022B02D9CB
:1055D0000323FB7304E0FFF7AAFD0346002BF0D181
:1055E000FB7B002B37D14FF0B0431B6923F4FE4205
:1055F0007B681B681B024FF0B04113430B614FF0F7
:10560000B0431B6923F060427B68DB684FF0B04118
:1056100013430B61FFF76DFDFDF7AAFEB86009E0CB
:10562000FDF7A6FE0246BB68D31A022B02D903235C
:10563000FB7304E0FFF77BFD0346012BF0D1FB7BFE
:10564000002B08D14FF0B0431A697B681B694FF0FB
:10565000B04113430B61FB7B18461037BD4680BD3C
:1056600080B584B000AF78607B68002B01D1012346
:105670009FE07B6893F82130DBB2002B06D17B687A
:10568000002283F820207868FCF7F4F87B68022277
:1056900083F82120494BDB6803F01003102B7ED0E8
:1056A0007B681B68CA225A627B681B6853225A6255
:1056B000786800F0ABF80346002B0AD07B681B68C3
:1056C000FF225A627B68042283F821200123FB73A6
:1056D00067E07B681B689B687A68126823F4E003C4
:1056E00023F0400393607B681B6899687B685A6865
:1056F0007B681B691A437B689B691A437B681B683C
:105700000A439A607B681B687A68D2681A617B6872
:105710001B6819697B689B681A047B681B680A43CD
:105720001A617B681B68DA687B681B6822F080025C
:10573000DA607B681B68DA6C7B681B6822F0030206
:10574000DA647B681B68D96C7B68DA697B685B69A3
:105750001A437B681B680A43DA647B681B689B6892
:1057600003F02003002B13D1786800F029F80346DA
:10577000002B0DD07B681B68FF225A627B680422D5
:1057800083F821207B68002283F82020012310E089
:105790007B681B68FF225A620023FB7301E0002331
:1057A000FB73FB7B002B03D17B68012283F8212054
:1057B000FB7B18461037BD4680BD00BF0028004067
:1057C00080B584B000AF78607B681B68DA687B685E
:1057D0001B6822F0A002DA60FDF7CAFDF86009E05C
:1057E000FDF7C6FD0246FB68D31AB3F57A7F01D9EF
:1057F000032307E07B681B68DB6803F02003002BB2
:10580000EED0002318461037BD4680BD80B584B069
:1058100000AF78607B681B68DB6803F04003002BF7
:1058200019D17B681B684FF0FF32DA60FDF7A0FDED
:10583000F86009E0FDF79CFD0246FB68D31AB3F55A
:105840007A7F01D9032307E07B681B68DB6803F0DC
:105850004003002BEED0002318461037BD4680BD14
:1058600080B586B000AFF860B9607A60FB6893F8E5
:105870002030012B01D10223A8E0FB68012283F82C
:105880002020FB68022283F82120FB681B68CA22C3
:105890005A62FB681B6853225A62FB681B689B684C
:1058A00003F48063002B20D0FDF762FD786115E0E2
:1058B000FDF75EFD02467B69D31AB3F57A7F0DD9F9
:1058C000FB681B68FF225A62FB68032283F82120D1
:1058D000FB68002283F82020032377E0FB681B6825
:1058E000DB6803F00403002BE2D1FB681B689A68B5
:1058F000FB681B6822F480629A60FB681B68DB68A7
:10590000DAB2FB681B6862F49062DA60FDF730FD82
:10591000786115E0FDF72CFD02467B69D31AB3F5DB
:105920007A7F0DD9FB681B68FF225A62FB6803224D
:1059300083F82120FB68002283F82020032345E020
:10594000FB681B68DB6803F00403002BE2D0FB68F4
:105950001B68BA685A61FB681B689A68FB681B6819
:1059600022F007029A60FB681B689968FB681B6855
:105970007A680A439A60174BD3F88030154A43F48B
:105980000023C2F88030134B1B68124A43F40023F3
:105990001360FB681B689A68FB681B6842F48042CE
:1059A0009A60FB681B689A68FB681B6842F4806217
:1059B0009A60FB681B68FF225A62FB68012283F829
:1059C0002120FB68002283F8202000231846183786
:1059D000BD4680BD0008005880B483B000AF786039
:1059E0007B6893F82030012B01D1022324E07B68EF
:1059F000012283F820207B68022283F821207B6823
:105A00001B68CA225A627B681B6853225A627B68F1
:105A10001B689A687B681B6842F020029A607B686A
:105A20001B68FF225A627B68012283F821207B6871
:105A3000002283F82020002318460C37BD465DF86D
:105A4000047B704780B400AF044B1B68C3F30B03A7
:105A50001846BD465DF8047B704700BF002004E097
:105A600080B400AF044B1B681B0C9BB21846BD46AC
:105A70005DF8047B704700BF002004E080B400AFF5
:105A8000034B1B681846BD465DF8047B704700BF9A
:105A90008075FF1F80B400AF034B1B68DBB2184654
:105AA000BD465DF8047B70478475FF1F80B400AF6E
:105AB000034B1B681B0A1846BD465DF8047B704704
:105AC0008475FF1F80B400AF034B1B681846BD46AA
:105AD0005DF8047B704700BF9075FF1F80B400AF76
